{
  "contractName": "Token",
  "abi": [
    {
      "inputs": [
        {
          "internalType": "string",
          "name": "name",
          "type": "string"
        },
        {
          "internalType": "string",
          "name": "symbol",
          "type": "string"
        }
      ],
      "stateMutability": "nonpayable",
      "type": "constructor"
    },
    {
      "anonymous": false,
      "inputs": [
        {
          "indexed": true,
          "internalType": "address",
          "name": "owner",
          "type": "address"
        },
        {
          "indexed": true,
          "internalType": "address",
          "name": "spender",
          "type": "address"
        },
        {
          "indexed": false,
          "internalType": "uint256",
          "name": "value",
          "type": "uint256"
        }
      ],
      "name": "Approval",
      "type": "event"
    },
    {
      "anonymous": false,
      "inputs": [
        {
          "indexed": true,
          "internalType": "address",
          "name": "sender",
          "type": "address"
        },
        {
          "indexed": false,
          "internalType": "uint256",
          "name": "amount",
          "type": "uint256"
        }
      ],
      "name": "Stake",
      "type": "event"
    },
    {
      "anonymous": false,
      "inputs": [
        {
          "indexed": true,
          "internalType": "address",
          "name": "from",
          "type": "address"
        },
        {
          "indexed": true,
          "internalType": "address",
          "name": "to",
          "type": "address"
        },
        {
          "indexed": false,
          "internalType": "uint256",
          "name": "value",
          "type": "uint256"
        }
      ],
      "name": "Transfer",
      "type": "event"
    },
    {
      "inputs": [
        {
          "internalType": "address",
          "name": "owner",
          "type": "address"
        },
        {
          "internalType": "address",
          "name": "spender",
          "type": "address"
        }
      ],
      "name": "allowance",
      "outputs": [
        {
          "internalType": "uint256",
          "name": "",
          "type": "uint256"
        }
      ],
      "stateMutability": "view",
      "type": "function",
      "constant": true
    },
    {
      "inputs": [
        {
          "internalType": "address",
          "name": "spender",
          "type": "address"
        },
        {
          "internalType": "uint256",
          "name": "amount",
          "type": "uint256"
        }
      ],
      "name": "approve",
      "outputs": [
        {
          "internalType": "bool",
          "name": "",
          "type": "bool"
        }
      ],
      "stateMutability": "nonpayable",
      "type": "function"
    },
    {
      "inputs": [
        {
          "internalType": "address",
          "name": "",
          "type": "address"
        }
      ],
      "name": "balance",
      "outputs": [
        {
          "internalType": "uint256",
          "name": "",
          "type": "uint256"
        }
      ],
      "stateMutability": "view",
      "type": "function",
      "constant": true
    },
    {
      "inputs": [
        {
          "internalType": "address",
          "name": "account",
          "type": "address"
        }
      ],
      "name": "balanceOf",
      "outputs": [
        {
          "internalType": "uint256",
          "name": "",
          "type": "uint256"
        }
      ],
      "stateMutability": "view",
      "type": "function",
      "constant": true
    },
    {
      "inputs": [],
      "name": "decimals",
      "outputs": [
        {
          "internalType": "uint8",
          "name": "",
          "type": "uint8"
        }
      ],
      "stateMutability": "view",
      "type": "function",
      "constant": true
    },
    {
      "inputs": [
        {
          "internalType": "address",
          "name": "spender",
          "type": "address"
        },
        {
          "internalType": "uint256",
          "name": "subtractedValue",
          "type": "uint256"
        }
      ],
      "name": "decreaseAllowance",
      "outputs": [
        {
          "internalType": "bool",
          "name": "",
          "type": "bool"
        }
      ],
      "stateMutability": "nonpayable",
      "type": "function"
    },
    {
      "inputs": [
        {
          "internalType": "address",
          "name": "spender",
          "type": "address"
        },
        {
          "internalType": "uint256",
          "name": "addedValue",
          "type": "uint256"
        }
      ],
      "name": "increaseAllowance",
      "outputs": [
        {
          "internalType": "bool",
          "name": "",
          "type": "bool"
        }
      ],
      "stateMutability": "nonpayable",
      "type": "function"
    },
    {
      "inputs": [],
      "name": "name",
      "outputs": [
        {
          "internalType": "string",
          "name": "",
          "type": "string"
        }
      ],
      "stateMutability": "view",
      "type": "function",
      "constant": true
    },
    {
      "inputs": [
        {
          "internalType": "uint256",
          "name": "",
          "type": "uint256"
        }
      ],
      "name": "stakeholders",
      "outputs": [
        {
          "internalType": "address",
          "name": "",
          "type": "address"
        }
      ],
      "stateMutability": "view",
      "type": "function",
      "constant": true
    },
    {
      "inputs": [],
      "name": "symbol",
      "outputs": [
        {
          "internalType": "string",
          "name": "",
          "type": "string"
        }
      ],
      "stateMutability": "view",
      "type": "function",
      "constant": true
    },
    {
      "inputs": [],
      "name": "totalStaked",
      "outputs": [
        {
          "internalType": "uint256",
          "name": "",
          "type": "uint256"
        }
      ],
      "stateMutability": "view",
      "type": "function",
      "constant": true
    },
    {
      "inputs": [],
      "name": "totalSupply",
      "outputs": [
        {
          "internalType": "uint256",
          "name": "",
          "type": "uint256"
        }
      ],
      "stateMutability": "view",
      "type": "function",
      "constant": true
    },
    {
      "inputs": [
        {
          "internalType": "address",
          "name": "recipient",
          "type": "address"
        },
        {
          "internalType": "uint256",
          "name": "amount",
          "type": "uint256"
        }
      ],
      "name": "transfer",
      "outputs": [
        {
          "internalType": "bool",
          "name": "",
          "type": "bool"
        }
      ],
      "stateMutability": "nonpayable",
      "type": "function"
    },
    {
      "inputs": [
        {
          "internalType": "address",
          "name": "sender",
          "type": "address"
        },
        {
          "internalType": "address",
          "name": "recipient",
          "type": "address"
        },
        {
          "internalType": "uint256",
          "name": "amount",
          "type": "uint256"
        }
      ],
      "name": "transferFrom",
      "outputs": [
        {
          "internalType": "bool",
          "name": "",
          "type": "bool"
        }
      ],
      "stateMutability": "nonpayable",
      "type": "function"
    },
    {
      "stateMutability": "payable",
      "type": "receive",
      "payable": true
    },
    {
      "inputs": [],
      "name": "stake",
      "outputs": [],
      "stateMutability": "payable",
      "type": "function",
      "payable": true
    },
    {
      "inputs": [],
      "name": "numberOfStakers",
      "outputs": [
        {
          "internalType": "uint256",
          "name": "",
          "type": "uint256"
        }
      ],
      "stateMutability": "view",
      "type": "function",
      "constant": true
    },
    {
      "inputs": [
        {
          "internalType": "address",
          "name": "_address",
          "type": "address"
        }
      ],
      "name": "userStakedBalance",
      "outputs": [
        {
          "internalType": "uint256",
          "name": "",
          "type": "uint256"
        }
      ],
      "stateMutability": "view",
      "type": "function",
      "constant": true
    },
    {
      "inputs": [],
      "name": "withdraw",
      "outputs": [],
      "stateMutability": "nonpayable",
      "type": "function"
    },
    {
      "inputs": [
        {
          "internalType": "address",
          "name": "_address",
          "type": "address"
        }
      ],
      "name": "isStakeholder",
      "outputs": [
        {
          "internalType": "bool",
          "name": "",
          "type": "bool"
        },
        {
          "internalType": "uint256",
          "name": "",
          "type": "uint256"
        }
      ],
      "stateMutability": "view",
      "type": "function",
      "constant": true
    }
  ],
  "bytecode": "0x60806040523480156200001157600080fd5b50604051620022f5380380620022f583398181016040528101906200003791906200048e565b818181600390805190602001906200005192919062000241565b5080600490805190602001906200006a92919062000241565b505050620000ad3362000082620000b560201b60201c565b60ff16600a620000939190620006a0565b6064620000a19190620006f1565b620000be60201b60201c565b5050620008c5565b60006012905090565b600073ffffffffffffffffffffffffffffffffffffffff168273ffffffffffffffffffffffffffffffffffffffff16141562000131576040517f08c379a00000000000000000000000000000000000000000000000000000000081526004016200012890620007b3565b60405180910390fd5b62000145600083836200023760201b60201c565b8060026000828254620001599190620007d5565b92505081905550806000808473ffffffffffffffffffffffffffffffffffffffff1673ffffffffffffffffffffffffffffffffffffffff1681526020019081526020016000206000828254620001b09190620007d5565b925050819055508173ffffffffffffffffffffffffffffffffffffffff16600073ffffffffffffffffffffffffffffffffffffffff167fddf252ad1be2c89b69c2b068fc378daa952ba7f163c4a11628f55a4df523b3ef8360405162000217919062000843565b60405180910390a362000233600083836200023c60201b60201c565b5050565b505050565b505050565b8280546200024f906200088f565b90600052602060002090601f016020900481019282620002735760008555620002bf565b82601f106200028e57805160ff1916838001178555620002bf565b82800160010185558215620002bf579182015b82811115620002be578251825591602001919060010190620002a1565b5b509050620002ce9190620002d2565b5090565b5b80821115620002ed576000816000905550600101620002d3565b5090565b6000604051905090565b600080fd5b600080fd5b600080fd5b600080fd5b6000601f19601f8301169050919050565b7f4e487b7100000000000000000000000000000000000000000000000000000000600052604160045260246000fd5b6200035a826200030f565b810181811067ffffffffffffffff821117156200037c576200037b62000320565b5b80604052505050565b600062000391620002f1565b90506200039f82826200034f565b919050565b600067ffffffffffffffff821115620003c257620003c162000320565b5b620003cd826200030f565b9050602081019050919050565b60005b83811015620003fa578082015181840152602081019050620003dd565b838111156200040a576000848401525b50505050565b6000620004276200042184620003a4565b62000385565b9050828152602081018484840111156200044657620004456200030a565b5b62000453848285620003da565b509392505050565b600082601f83011262000473576200047262000305565b5b81516200048584826020860162000410565b91505092915050565b60008060408385031215620004a857620004a7620002fb565b5b600083015167ffffffffffffffff811115620004c957620004c862000300565b5b620004d7858286016200045b565b925050602083015167ffffffffffffffff811115620004fb57620004fa62000300565b5b62000509858286016200045b565b9150509250929050565b7f4e487b7100000000000000000000000000000000000000000000000000000000600052601160045260246000fd5b60008160011c9050919050565b6000808291508390505b6001851115620005a15780860481111562000579576200057862000513565b5b6001851615620005895780820291505b8081029050620005998562000542565b945062000559565b94509492505050565b600082620005bc57600190506200068f565b81620005cc57600090506200068f565b8160018114620005e55760028114620005f05762000626565b60019150506200068f565b60ff84111562000605576200060462000513565b5b8360020a9150848211156200061f576200061e62000513565b5b506200068f565b5060208310610133831016604e8410600b8410161715620006605782820a9050838111156200065a576200065962000513565b5b6200068f565b6200066f84848460016200054f565b9250905081840481111562000689576200068862000513565b5b81810290505b9392505050565b6000819050919050565b6000620006ad8262000696565b9150620006ba8362000696565b9250620006e97fffffffffffffffffffffffffffffffffffffffffffffffffffffffffffffffff8484620005aa565b905092915050565b6000620006fe8262000696565b91506200070b8362000696565b9250817fffffffffffffffffffffffffffffffffffffffffffffffffffffffffffffffff048311821515161562000747576200074662000513565b5b828202905092915050565b600082825260208201905092915050565b7f45524332303a206d696e7420746f20746865207a65726f206164647265737300600082015250565b60006200079b601f8362000752565b9150620007a88262000763565b602082019050919050565b60006020820190508181036000830152620007ce816200078c565b9050919050565b6000620007e28262000696565b9150620007ef8362000696565b9250827fffffffffffffffffffffffffffffffffffffffffffffffffffffffffffffffff0382111562000827576200082662000513565b5b828201905092915050565b6200083d8162000696565b82525050565b60006020820190506200085a600083018462000832565b92915050565b7f4e487b7100000000000000000000000000000000000000000000000000000000600052602260045260246000fd5b60006002820490506001821680620008a857607f821691505b60208210811415620008bf57620008be62000860565b5b50919050565b611a2080620008d56000396000f3fe6080604052600436106101185760003560e01c80633ccfd60b116100a0578063a457c2d711610064578063a457c2d7146103b5578063a9059cbb146103f2578063dd62ed3e1461042f578063e3d670d71461046c578063ef037b90146104a95761011f565b80633ccfd60b146102e05780635eabf577146102f757806370a0823114610322578063817b1cd21461035f57806395d89b411461038a5761011f565b806323b872dd116100e757806323b872dd146101f4578063313ce5671461023157806333e630f81461025c57806339509351146102995780633a4b66f1146102d65761011f565b806306fdde0314610124578063095ea7b31461014f57806318160ddd1461018c5780631d6b8b72146101b75761011f565b3661011f57005b600080fd5b34801561013057600080fd5b506101396104e7565b60405161014691906111a2565b60405180910390f35b34801561015b57600080fd5b506101766004803603810190610171919061125d565b610579565b60405161018391906112b8565b60405180910390f35b34801561019857600080fd5b506101a1610597565b6040516101ae91906112e2565b60405180910390f35b3480156101c357600080fd5b506101de60048036038101906101d991906112fd565b6105a1565b6040516101eb9190611339565b60405180910390f35b34801561020057600080fd5b5061021b60048036038101906102169190611354565b6105e0565b60405161022891906112b8565b60405180910390f35b34801561023d57600080fd5b506102466106d8565b60405161025391906113c3565b60405180910390f35b34801561026857600080fd5b50610283600480360381019061027e91906113de565b6106e1565b60405161029091906112e2565b60405180910390f35b3480156102a557600080fd5b506102c060048036038101906102bb919061125d565b61072a565b6040516102cd91906112b8565b60405180910390f35b6102de6107d6565b005b3480156102ec57600080fd5b506102f56108f8565b005b34801561030357600080fd5b5061030c610a0e565b60405161031991906112e2565b60405180910390f35b34801561032e57600080fd5b50610349600480360381019061034491906113de565b610a1b565b60405161035691906112e2565b60405180910390f35b34801561036b57600080fd5b50610374610a63565b60405161038191906112e2565b60405180910390f35b34801561039657600080fd5b5061039f610a69565b6040516103ac91906111a2565b60405180910390f35b3480156103c157600080fd5b506103dc60048036038101906103d7919061125d565b610afb565b6040516103e991906112b8565b60405180910390f35b3480156103fe57600080fd5b506104196004803603810190610414919061125d565b610be6565b60405161042691906112b8565b60405180910390f35b34801561043b57600080fd5b506104566004803603810190610451919061140b565b610c04565b60405161046391906112e2565b60405180910390f35b34801561047857600080fd5b50610493600480360381019061048e91906113de565b610c8b565b6040516104a091906112e2565b60405180910390f35b3480156104b557600080fd5b506104d060048036038101906104cb91906113de565b610ca3565b6040516104de92919061144b565b60405180910390f35b6060600380546104f6906114a3565b80601f0160208091040260200160405190810160405280929190818152602001828054610522906114a3565b801561056f5780601f106105445761010080835404028352916020019161056f565b820191906000526020600020905b81548152906001019060200180831161055257829003601f168201915b5050505050905090565b600061058d610586610cab565b8484610cb3565b6001905092915050565b6000600254905090565b600781815481106105b157600080fd5b906000526020600020016000915054906101000a900473ffffffffffffffffffffffffffffffffffffffff1681565b60006105ed848484610e7e565b6000600160008673ffffffffffffffffffffffffffffffffffffffff1673ffffffffffffffffffffffffffffffffffffffff1681526020019081526020016000206000610638610cab565b73ffffffffffffffffffffffffffffffffffffffff1673ffffffffffffffffffffffffffffffffffffffff168152602001908152602001600020549050828110156106b8576040517f08c379a00000000000000000000000000000000000000000000000000000000081526004016106af90611547565b60405180910390fd5b6106cc856106c4610cab565b858403610cb3565b60019150509392505050565b60006012905090565b6000600560008373ffffffffffffffffffffffffffffffffffffffff1673ffffffffffffffffffffffffffffffffffffffff168152602001908152602001600020549050919050565b60006107cc610737610cab565b848460016000610745610cab565b73ffffffffffffffffffffffffffffffffffffffff1673ffffffffffffffffffffffffffffffffffffffff16815260200190815260200160002060008873ffffffffffffffffffffffffffffffffffffffff1673ffffffffffffffffffffffffffffffffffffffff168152602001908152602001600020546107c79190611596565b610cb3565b6001905092915050565b34600560003373ffffffffffffffffffffffffffffffffffffffff1673ffffffffffffffffffffffffffffffffffffffff16815260200190815260200160002060008282546108259190611596565b92505081905550346006600082825461083e9190611596565b925050819055506007339080600181540180825580915050600190039060005260206000200160009091909190916101000a81548173ffffffffffffffffffffffffffffffffffffffff021916908373ffffffffffffffffffffffffffffffffffffffff1602179055503373ffffffffffffffffffffffffffffffffffffffff167febedb8b3c678666e7f36970bc8f57abf6d8fa2e828c0da91ea5b75bf68ed101a346040516108ee91906112e2565b60405180910390a2565b6000600560003373ffffffffffffffffffffffffffffffffffffffff1673ffffffffffffffffffffffffffffffffffffffff1681526020019081526020016000205490506000811161097f576040517f08c379a00000000000000000000000000000000000000000000000000000000081526004016109769061165e565b60405180910390fd5b3373ffffffffffffffffffffffffffffffffffffffff166108fc479081150290604051600060405180830381858888f193505050501580156109c5573d6000803e3d6000fd5b506000600560003373ffffffffffffffffffffffffffffffffffffffff1673ffffffffffffffffffffffffffffffffffffffff1681526020019081526020016000208190555050565b6000600780549050905090565b60008060008373ffffffffffffffffffffffffffffffffffffffff1673ffffffffffffffffffffffffffffffffffffffff168152602001908152602001600020549050919050565b60065481565b606060048054610a78906114a3565b80601f0160208091040260200160405190810160405280929190818152602001828054610aa4906114a3565b8015610af15780601f10610ac657610100808354040283529160200191610af1565b820191906000526020600020905b815481529060010190602001808311610ad457829003601f168201915b5050505050905090565b60008060016000610b0a610cab565b73ffffffffffffffffffffffffffffffffffffffff1673ffffffffffffffffffffffffffffffffffffffff16815260200190815260200160002060008573ffffffffffffffffffffffffffffffffffffffff1673ffffffffffffffffffffffffffffffffffffffff16815260200190815260200160002054905082811015610bc7576040517f08c379a0000000000000000000000000000000000000000000000000000000008152600401610bbe906116f0565b60405180910390fd5b610bdb610bd2610cab565b85858403610cb3565b600191505092915050565b6000610bfa610bf3610cab565b8484610e7e565b6001905092915050565b6000600160008473ffffffffffffffffffffffffffffffffffffffff1673ffffffffffffffffffffffffffffffffffffffff16815260200190815260200160002060008373ffffffffffffffffffffffffffffffffffffffff1673ffffffffffffffffffffffffffffffffffffffff16815260200190815260200160002054905092915050565b60056020528060005260406000206000915090505481565b600080915091565b600033905090565b600073ffffffffffffffffffffffffffffffffffffffff168373ffffffffffffffffffffffffffffffffffffffff161415610d23576040517f08c379a0000000000000000000000000000000000000000000000000000000008152600401610d1a90611782565b60405180910390fd5b600073ffffffffffffffffffffffffffffffffffffffff168273ffffffffffffffffffffffffffffffffffffffff161415610d93576040517f08c379a0000000000000000000000000000000000000000000000000000000008152600401610d8a90611814565b60405180910390fd5b80600160008573ffffffffffffffffffffffffffffffffffffffff1673ffffffffffffffffffffffffffffffffffffffff16815260200190815260200160002060008473ffffffffffffffffffffffffffffffffffffffff1673ffffffffffffffffffffffffffffffffffffffff168152602001908152602001600020819055508173ffffffffffffffffffffffffffffffffffffffff168373ffffffffffffffffffffffffffffffffffffffff167f8c5be1e5ebec7d5bd14f71427d1e84f3dd0314c0f7b2291e5b200ac8c7c3b92583604051610e7191906112e2565b60405180910390a3505050565b600073ffffffffffffffffffffffffffffffffffffffff168373ffffffffffffffffffffffffffffffffffffffff161415610eee576040517f08c379a0000000000000000000000000000000000000000000000000000000008152600401610ee5906118a6565b60405180910390fd5b600073ffffffffffffffffffffffffffffffffffffffff168273ffffffffffffffffffffffffffffffffffffffff161415610f5e576040517f08c379a0000000000000000000000000000000000000000000000000000000008152600401610f5590611938565b60405180910390fd5b610f698383836110ff565b60008060008573ffffffffffffffffffffffffffffffffffffffff1673ffffffffffffffffffffffffffffffffffffffff16815260200190815260200160002054905081811015610fef576040517f08c379a0000000000000000000000000000000000000000000000000000000008152600401610fe6906119ca565b60405180910390fd5b8181036000808673ffffffffffffffffffffffffffffffffffffffff1673ffffffffffffffffffffffffffffffffffffffff16815260200190815260200160002081905550816000808573ffffffffffffffffffffffffffffffffffffffff1673ffffffffffffffffffffffffffffffffffffffff16815260200190815260200160002060008282546110829190611596565b925050819055508273ffffffffffffffffffffffffffffffffffffffff168473ffffffffffffffffffffffffffffffffffffffff167fddf252ad1be2c89b69c2b068fc378daa952ba7f163c4a11628f55a4df523b3ef846040516110e691906112e2565b60405180910390a36110f9848484611104565b50505050565b505050565b505050565b600081519050919050565b600082825260208201905092915050565b60005b83811015611143578082015181840152602081019050611128565b83811115611152576000848401525b50505050565b6000601f19601f8301169050919050565b600061117482611109565b61117e8185611114565b935061118e818560208601611125565b61119781611158565b840191505092915050565b600060208201905081810360008301526111bc8184611169565b905092915050565b600080fd5b600073ffffffffffffffffffffffffffffffffffffffff82169050919050565b60006111f4826111c9565b9050919050565b611204816111e9565b811461120f57600080fd5b50565b600081359050611221816111fb565b92915050565b6000819050919050565b61123a81611227565b811461124557600080fd5b50565b60008135905061125781611231565b92915050565b60008060408385031215611274576112736111c4565b5b600061128285828601611212565b925050602061129385828601611248565b9150509250929050565b60008115159050919050565b6112b28161129d565b82525050565b60006020820190506112cd60008301846112a9565b92915050565b6112dc81611227565b82525050565b60006020820190506112f760008301846112d3565b92915050565b600060208284031215611313576113126111c4565b5b600061132184828501611248565b91505092915050565b611333816111e9565b82525050565b600060208201905061134e600083018461132a565b92915050565b60008060006060848603121561136d5761136c6111c4565b5b600061137b86828701611212565b935050602061138c86828701611212565b925050604061139d86828701611248565b9150509250925092565b600060ff82169050919050565b6113bd816113a7565b82525050565b60006020820190506113d860008301846113b4565b92915050565b6000602082840312156113f4576113f36111c4565b5b600061140284828501611212565b91505092915050565b60008060408385031215611422576114216111c4565b5b600061143085828601611212565b925050602061144185828601611212565b9150509250929050565b600060408201905061146060008301856112a9565b61146d60208301846112d3565b9392505050565b7f4e487b7100000000000000000000000000000000000000000000000000000000600052602260045260246000fd5b600060028204905060018216806114bb57607f821691505b602082108114156114cf576114ce611474565b5b50919050565b7f45524332303a207472616e7366657220616d6f756e742065786365656473206160008201527f6c6c6f77616e6365000000000000000000000000000000000000000000000000602082015250565b6000611531602883611114565b915061153c826114d5565b604082019050919050565b6000602082019050818103600083015261156081611524565b9050919050565b7f4e487b7100000000000000000000000000000000000000000000000000000000600052601160045260246000fd5b60006115a182611227565b91506115ac83611227565b9250827fffffffffffffffffffffffffffffffffffffffffffffffffffffffffffffffff038211156115e1576115e0611567565b5b828201905092915050565b7f596f7520646f6e277420686176652062616c616e636520746f2077697468647260008201527f6177000000000000000000000000000000000000000000000000000000000000602082015250565b6000611648602283611114565b9150611653826115ec565b604082019050919050565b600060208201905081810360008301526116778161163b565b9050919050565b7f45524332303a2064656372656173656420616c6c6f77616e63652062656c6f7760008201527f207a65726f000000000000000000000000000000000000000000000000000000602082015250565b60006116da602583611114565b91506116e58261167e565b604082019050919050565b60006020820190508181036000830152611709816116cd565b9050919050565b7f45524332303a20617070726f76652066726f6d20746865207a65726f2061646460008201527f7265737300000000000000000000000000000000000000000000000000000000602082015250565b600061176c602483611114565b915061177782611710565b604082019050919050565b6000602082019050818103600083015261179b8161175f565b9050919050565b7f45524332303a20617070726f766520746f20746865207a65726f20616464726560008201527f7373000000000000000000000000000000000000000000000000000000000000602082015250565b60006117fe602283611114565b9150611809826117a2565b604082019050919050565b6000602082019050818103600083015261182d816117f1565b9050919050565b7f45524332303a207472616e736665722066726f6d20746865207a65726f20616460008201527f6472657373000000000000000000000000000000000000000000000000000000602082015250565b6000611890602583611114565b915061189b82611834565b604082019050919050565b600060208201905081810360008301526118bf81611883565b9050919050565b7f45524332303a207472616e7366657220746f20746865207a65726f206164647260008201527f6573730000000000000000000000000000000000000000000000000000000000602082015250565b6000611922602383611114565b915061192d826118c6565b604082019050919050565b6000602082019050818103600083015261195181611915565b9050919050565b7f45524332303a207472616e7366657220616d6f756e742065786365656473206260008201527f616c616e63650000000000000000000000000000000000000000000000000000602082015250565b60006119b4602683611114565b91506119bf82611958565b604082019050919050565b600060208201905081810360008301526119e3816119a7565b905091905056fea2646970667358221220c79dfaecfb061b5d564ed537af21903e3a3e64c5ddb433b6d00a2429c066dacc64736f6c63430008090033",
  "immutableReferences": {},
  "source": "// SPDX-License-Identifier: MIT\npragma solidity ^0.8.3;\n\nimport \"@openzeppelin/contracts/token/ERC20/ERC20.sol\";\nimport \"@openzeppelin/contracts/utils/math/SafeMath.sol\";\nimport \"@openzeppelin/contracts/access/Ownable.sol\";\n\ncontract Token is ERC20 {\n  using SafeMath for uint256;\n  receive() external payable {\n    }\n\n  // Constructor - create token\n  constructor(string memory name, string memory symbol) ERC20(name, symbol) {\n      _mint(msg.sender, 100 * 10**uint(decimals()));\n  }\n\n  // Balances of the user's staked funds\n  mapping(address => uint256) public balance;\n\n  uint public totalStaked ;\n\n  // stakeholder addresses\n  address[] public stakeholders;\n\n  // Contract's Events - Event for when a user stakes\n  event Stake(address indexed sender, uint256 amount);\n  \n  function stake() public payable {\n    balance[msg.sender] += msg.value;\n    totalStaked += msg.value;\n    stakeholders.push(msg.sender); // todo only add if new\n    emit Stake(msg.sender, msg.value);\n  }\n\n  // // total staked.\n  // function totalStakes() public view returns(uint256) {\n  //    uint256 _totalStakes = 0;\n  //      for (uint256 s = 0; s < stakeholders.length; s += 1){\n  //          _totalStakes = _totalStakes.add(balance[stakeholders[s]]);\n  //      }\n  //      return _totalStakes;\n  // }\n\n    function numberOfStakers() public view returns(uint256) {\n       return stakeholders.length;\n  }\n\n  // display an individual users total\n  function userStakedBalance(address _address) public view returns (uint256){\n    return balance[_address];\n  }\n\n  // allow user to withdraw\n   function withdraw() public {\n    uint256 userBalance = balance[msg.sender];\n\n    // check if the user has balance to withdraw\n    require(userBalance > 0, \"You don't have balance to withdraw\");\n\n    // Transfer balance back to the user\n    payable(msg.sender).transfer(address(this).balance);\n\n    // reset the balance of the user\n    balance[msg.sender] = 0; // also need to remove from array , partial withdrawel?\n\n  }\n\n  /* Let holders of staked token claim an NFT */\n\n  // Check if they are a stakeholer\n   function isStakeholder(address _address) public view returns(bool, uint256)\n   {\n      //  for (uint256 s = 0; s < stakeholders.length; s += 1){\n      //      if (_address == stakeholders[s]) return (true, s);\n      //  }\n      //  return (false, 0);\n   }\n\n}\n\n/* Stretch features\n* Return a staked version of token.\n* NFT has some dynamic properties. Not sure what. Maybe leave till later.\n* Perhaps the staked token earns some rewards over time. A new NFT made available?\n* Maybe add a lock mechanism. E.g one week. Display time left.\n*/\n\n  \n  \n\n",
  "sourcePath": "/Users/gregplumbly/Dev/Academy/unbox-test/contracts/Token.sol",
  "compiler": {
    "name": "solc",
    "version": "0.8.9+commit.e5eed63a.Emscripten.clang"
  },
  "schemaVersion": "3.4.3",
  "updatedAt": "2021-10-15T14:19:10.001Z",
  "networkType": "ethereum",
  "devdoc": {
    "kind": "dev",
    "methods": {
      "allowance(address,address)": {
        "details": "See {IERC20-allowance}."
      },
      "approve(address,uint256)": {
        "details": "See {IERC20-approve}. Requirements: - `spender` cannot be the zero address."
      },
      "balanceOf(address)": {
        "details": "See {IERC20-balanceOf}."
      },
      "decimals()": {
        "details": "Returns the number of decimals used to get its user representation. For example, if `decimals` equals `2`, a balance of `505` tokens should be displayed to a user as `5.05` (`505 / 10 ** 2`). Tokens usually opt for a value of 18, imitating the relationship between Ether and Wei. This is the value {ERC20} uses, unless this function is overridden; NOTE: This information is only used for _display_ purposes: it in no way affects any of the arithmetic of the contract, including {IERC20-balanceOf} and {IERC20-transfer}."
      },
      "decreaseAllowance(address,uint256)": {
        "details": "Atomically decreases the allowance granted to `spender` by the caller. This is an alternative to {approve} that can be used as a mitigation for problems described in {IERC20-approve}. Emits an {Approval} event indicating the updated allowance. Requirements: - `spender` cannot be the zero address. - `spender` must have allowance for the caller of at least `subtractedValue`."
      },
      "increaseAllowance(address,uint256)": {
        "details": "Atomically increases the allowance granted to `spender` by the caller. This is an alternative to {approve} that can be used as a mitigation for problems described in {IERC20-approve}. Emits an {Approval} event indicating the updated allowance. Requirements: - `spender` cannot be the zero address."
      },
      "name()": {
        "details": "Returns the name of the token."
      },
      "symbol()": {
        "details": "Returns the symbol of the token, usually a shorter version of the name."
      },
      "totalSupply()": {
        "details": "See {IERC20-totalSupply}."
      },
      "transfer(address,uint256)": {
        "details": "See {IERC20-transfer}. Requirements: - `recipient` cannot be the zero address. - the caller must have a balance of at least `amount`."
      },
      "transferFrom(address,address,uint256)": {
        "details": "See {IERC20-transferFrom}. Emits an {Approval} event indicating the updated allowance. This is not required by the EIP. See the note at the beginning of {ERC20}. Requirements: - `sender` and `recipient` cannot be the zero address. - `sender` must have a balance of at least `amount`. - the caller must have allowance for ``sender``'s tokens of at least `amount`."
      }
    },
    "version": 1
  },
  "userdoc": {
    "kind": "user",
    "methods": {},
    "version": 1
  }
}